:020000040800F2
:100000000050002065520008155300087191000847
:100010001553000815530008155300080000000090
:100020000000000000000000000000001553000860
:100030001553000800000000155300089DED00084E
:1000400015530008155300081553000815530008F0
:10005000155300081553000815530008FD1B000830
:1000600015530008155300081553000815530008D0
:10007000155300081553000845F0000815530008F3
:1000800015530008155300081553000815530008B0
:10009000155300081553000815530008011C0008EB
:1000A000155300081553000815530008DD2B0008F0
:1000B000352C0008412C00084D2C00080DEA0008E2
:1000C0008DED000811EA000889ED000815530008BD
:1000D000155300081553000829F3000815530008AC
:1000E00025160008155300081553000800000000ED
:1000F0000000000000000000000000000000000000
:0C01000000000000000000005FF808F1A3
:1001100010B5054C237833B9044810B10448AFF347
:1001200000800121217010BD880400200000000023
:100130008C9A010808B5064B1BB106480649AFF377
:1001400000800648016811B1054A02B1904708BD18
:10015000000000008C9A01088C0400208404002018
:100160000000000081F0004102E000BF83F0004386
:1001700030B54FEA41044FEA430594EA050F08BF42
:1001800090EA020F1FBF54EA000C55EA020C7FEA06
:10019000645C7FEA655C00F0E2804FEA5454D4EB83
:1001A0005555B8BF6D420CDD2C4480EA020281EA4D
:1001B000030382EA000083EA010180EA020281EA85
:1001C0000303362D88BF30BD11F0004F4FEA0131D7
:1001D0004FF4801C4CEA113102D0404261EB4101E6
:1001E00013F0004F4FEA03334CEA133302D052426C
:1001F00063EB430394EA050F00F0A780A4F1010428
:10020000D5F1200E0DDB02FA0EFC22FA05F2801861
:1002100041F1000103FA0EF2801843FA05F3594147
:100220000EE0A5F120050EF1200E012A03FA0EFCC6
:1002300028BF4CF0020C43FA05F3C01851EBE371F0
:1002400001F0004507D54FF0000EDCF1000C7EEB0D
:1002500000006EEB0101B1F5801F1BD3B1F5001F4B
:100260000CD349085FEA30004FEA3C0C04F101046A
:100270004FEA445212F5800F80F09A80BCF1004F93
:1002800008BF5FEA500C50F1000041EB045141EA15
:10029000050130BD5FEA4C0C404141EB010111F416
:1002A000801FA4F10104E9D191F0000F04BF0146C1
:1002B0000020B1FA81F308BF2033A3F10B03B3F19F
:1002C00020020CDA0C3208DD02F1140CC2F10C022F
:1002D00001FA0CF021FA02F10CE002F11402D8BF8D
:1002E000C2F1200C01FA02F120FA0CFCDCBF41EA59
:1002F0000C019040E41AA2BF01EB0451294330BD28
:100300006FEA04041F3C1CDA0C340EDC04F1140404
:10031000C4F1200220FA04F001FA02F340EA0300DB
:1003200021FA04F345EA030130BDC4F10C04C4F121
:10033000200220FA02F001FA04F340EA0300294601
:1003400030BD21FA04F0294630BD94F0000F83F44B
:10035000801306BF81F480110134013D4EE77FEA2E
:10036000645C18BF7FEA655C29D094EA050F08BF7A
:1003700090EA020F05D054EA000C04BF194610465B
:1003800030BD91EA030F1EBF0021002030BD5FEA9F
:10039000545C05D14000494128BF41F0004130BDC7
:1003A00014F580043CBF01F5801130BD01F000451B
:1003B00045F0FE4141F470014FF0000030BD7FEA8E
:1003C000645C1ABF194610467FEA655C1CBF0B4689
:1003D000024650EA013406BF52EA033591EA030FA0
:1003E00041F4002130BD00BF90F0000F04BF002198
:1003F000704730B54FF4806404F132044FF00005CB
:100400004FF0000150E700BF90F0000F04BF002143
:10041000704730B54FF4806404F1320410F00045A9
:1004200048BF40424FF000013EE700BF42004FEAA4
:10043000E2014FEA31014FEA02701FBF12F07F4321
:1004400093F07F4F81F06051704792F0000F14BF1E
:1004500093F07F4F704730B54FF4607401F0004562
:1004600021F0004120E700BF50EA010208BF7047B9
:1004700030B54FF000050AE050EA010208BF7047AE
:1004800030B511F0004502D5404261EB41014FF417
:10049000806404F132045FEA915C3FF4DCAE4FF01B
:1004A00003025FEADC0C18BF03325FEADC0C18BF02
:1004B000033202EBDC02C2F1200300FA03FC20FA53
:1004C00002F001FA03FE40EA0E0021FA02F11444A0
:1004D000C1E600BF70B54FF0FF0C4CF4E06C1CEAB5
:1004E00011541DBF1CEA135594EA0C0F95EA0C0F2A
:1004F00000F0DEF82C4481EA030621EA4C5123EA9D
:100500004C5350EA013518BF52EA033541F48011CB
:1005100043F4801338D0A0FB02CE4FF00005E1FB7E
:1005200002E506F00042E0FB03E54FF00006E1FBC8
:1005300003569CF0000F18BF4EF0010EA4F1FF040B
:10054000B6F5007F64F5407404D25FEA4E0E6D414B
:1005500046EB060642EAC62141EA55514FEAC5205C
:1005600040EA5E504FEACE2EB4F1FD0C88BFBCF5D8
:10057000E06F1ED8BEF1004F08BF5FEA500E50F189
:10058000000041EB045170BD06F0004646EA01014F
:1005900040EA020081EA0301B4EB5C04C2BFD4EB81
:1005A0000C0541EA045170BD41F480114FF0000E7A
:1005B000013C00F3AB8014F1360FDEBF002001F0E8
:1005C000004170BDC4F10004203C35DA0C341BDC62
:1005D00004F11404C4F1200500FA05F320FA04F034
:1005E00001FA05F240EA020001F0004221F0004168
:1005F00010EBD37021FA04F642EB06015EEA430EDB
:1006000008BF20EAD37070BDC4F10C04C4F120050A
:1006100000FA04F320FA05F001FA04F240EA0200BD
:1006200001F0004110EBD37041F100015EEA430E8E
:1006300008BF20EAD37070BDC4F1200500FA05F2AE
:100640004EEA020E20FA04F301FA05F243EA02032D
:1006500021FA04F001F0004121FA04F220EA02003C
:1006600000EBD3705EEA430E08BF20EAD37070BD82
:1006700094F0000F0FD101F00046400041EB010162
:1006800011F4801F08BF013CF7D041EA060195F044
:10069000000F18BF704703F00046520043EB0303FE
:1006A00013F4801F08BF013DF7D043EA06037047EB
:1006B00094EA0C0F0CEA135518BF95EA0C0F0CD0F6
:1006C00050EA410618BF52EA4306D1D181EA03013C
:1006D00001F000414FF0000070BD50EA410606BF36
:1006E0001046194652EA430619D094EA0C0F02D17B
:1006F00050EA013613D195EA0C0F05D152EA0336C0
:100700001CBF104619460AD181EA030101F00041DD
:1007100041F0FE4141F470014FF0000070BD41F026
:10072000FE4141F4780170BD70B54FF0FF0C4CF400
:10073000E06C1CEA11541DBF1CEA135594EA0C0F1F
:1007400095EA0C0F00F0A7F8A4EB050481EA030E6C
:1007500052EA03354FEA013100F088804FEA033353
:100760004FF0805545EA131343EA12634FEA022221
:1007700045EA111545EA10654FEA00260EF00041E2
:100780009D4208BF964244F1FD0404F5407402D234
:100790005B084FEA3202B61A65EB03055B084FEAC5
:1007A00032024FF480104FF4002CB6EB020E75EBC2
:1007B000030E22BFB61A754640EA0C005B084FEAEA
:1007C0003202B6EB020E75EB030E22BFB61A754667
:1007D00040EA5C005B084FEA3202B6EB020E75EBB2
:1007E000030E22BFB61A754640EA9C005B084FEA2A
:1007F0003202B6EB020E75EB030E22BFB61A754637
:1008000040EADC0055EA060E18D04FEA051545EA25
:1008100016754FEA06164FEAC30343EA52734FEACE
:10082000C2025FEA1C1CC0D111F4801F0BD141EA47
:1008300000014FF000004FF0004CB6E711F4801FAC
:1008400004BF01430020B4F1FD0C88BFBCF5E06F8C
:100850003FF6AFAEB5EB030C04BFB6EB020C5FEA9C
:10086000500C50F1000041EB045170BD0EF0004EF1
:100870004EEA113114EB5C04C2BFD4EB0C0541EA23
:10088000045170BD41F480114FF0000E013C90E620
:1008900045EA060E8DE60CEA135594EA0C0F08BFE4
:1008A00095EA0C0F3FF43BAF94EA0C0F0AD150EAE3
:1008B00001347FF434AF95EA0C0F7FF425AF104676
:1008C00019462CE795EA0C0F06D152EA03353FF49E
:1008D000FDAE1046194622E750EA410618BF52EA1B
:1008E00043067FF4C5AE50EA41047FF40DAF52EAEF
:1008F00043057FF4EBAE12E74FF0FF3C06E000BF8C
:100900004FF0010C02E000BF4FF0010C4DF804CD98
:100910004FEA410C7FEA6C5C4FEA430C18BF7FEA58
:100920006C5C1BD001B050EA410C0CBF52EA430C86
:1009300091EA030F02BF90EA020F0020704710F106
:10094000000F91EA030F58BF994208BF90422CBF95
:10095000D8176FEAE37040F0010070474FEA410C8E
:100960007FEA6C5C02D150EA013C07D14FEA430CAC
:100970007FEA6C5CD6D152EA033CD3D05DF8040B1D
:10098000704700BF8446104662468C46194663464F
:1009900000E000BF01B5FFF7B7FF002848BF10F126
:1009A000000F01BD4DF808EDFFF7F4FF0CBF01206B
:1009B00000205DF808FB00BF4DF808EDFFF7EAFFE7
:1009C00034BF012000205DF808FB00BF4DF808EDA2
:1009D000FFF7E0FF94BF012000205DF808FB00BF97
:1009E0004DF808EDFFF7CEFF94BF012000205DF821
:1009F00008FB00BF4DF808EDFFF7C4FF34BF01202E
:100A000000205DF808FB00BF4FEA410212F500121A
:100A100015D211D56FF47873B3EB625212D94FEA45
:100A2000C12343F0004343EA505311F0004F23FA2F
:100A300002F018BF404270474FF00000704750EA84
:100A4000013005D111F0004008BF6FF00040704741
:100A50004FF00000704700BF4A0011D212F500129B
:100A600011D20DD56FF47873B3EB62520ED44FEA06
:100A7000C12343F0004343EA505323FA02F0704786
:100A80004FF00000704750EA013002D14FF0FF30C4
:100A900070474FF0000070474FEA4102B2F1E04367
:100AA00024BFB3F5001CDCF1FE5C0DD901F0004C55
:100AB0004FEAC0024CEA5070B2F1004F40EB8300A5
:100AC00008BF20F00100704711F0804F21D113F1D1
:100AD0003872BCBF01F00040704741F480114FEA0A
:100AE0005252C2F11802C2F1200C10FA0CF320FA93
:100AF00002F018BF40F001004FEAC1234FEAD323B0
:100B000003FA0CFC40EA0C0023FA02F34FEA430319
:100B1000CCE77FEA625307D150EA01331EBF4FF0A2
:100B2000FE4040F44000704701F0004040F0FE40BD
:100B300040F40000704700BF80F0004002E000BFBA
:100B400081F0004142001FBF5FEA410392EA030FB8
:100B50007FEA226C7FEA236C6AD04FEA1262D2EB02
:100B60001363C1BFD218414048404140B8BF5B4207
:100B7000192B88BF704710F0004F40F4000020F0A0
:100B80007F4018BF404211F0004F41F4000121F0B6
:100B90007F4118BF494292EA030F3FD0A2F1010200
:100BA00041FA03FC10EB0C00C3F1200301FA03F13E
:100BB00000F0004302D5494260EB4000B0F5000F61
:100BC00013D3B0F1807F06D340084FEA310102F120
:100BD0000102FE2A51D2B1F1004F40EBC25008BFD2
:100BE00020F0010040EA03007047490040EB00009C
:100BF00010F4000FA2F10102EDD1B0FA80FCACF1CB
:100C0000080CB2EB0C0200FA0CF0AABF00EBC250C9
:100C100052421843BCBFD0401843704792F0000FB7
:100C200081F4000106BF80F400000132013BB5E70A
:100C30004FEA41037FEA226C18BF7FEA236C21D080
:100C400092EA030F04D092F0000F08BF08467047E5
:100C500090EA010F1CBF0020704712F07F4F04D1B3
:100C6000400028BF40F00040704712F100723CBFC6
:100C700000F50000704700F0004343F0FE4040F4F0
:100C8000000070477FEA226216BF08467FEA2363AE
:100C90000146420206BF5FEA412390EA010F40F499
:100CA000800070474FF0000304E000BF10F00043E5
:100CB00048BF40425FEA000C08BF704743F09643CC
:100CC00001464FF000001CE050EA010208BF7047E7
:100CD0004FF000030AE000BF50EA010208BF70476E
:100CE00011F0004302D5404261EB41015FEA010C83
:100CF00002BF84460146002043F0B64308BFA3F17B
:100D00008053A3F50003BCFA8CF2083AA3EBC2535C
:100D100010DB01FA02FC634400FA02FCC2F120027B
:100D2000BCF1004F20FA02F243EB020008BF20F0B2
:100D30000100704702F1200201FA02FCC2F1200218
:100D400050EA4C0021FA02F243EB020008BF20EA0D
:100D5000DC7070474FF0FF0C1CEAD0521EBF1CEA3B
:100D6000D15392EA0C0F93EA0C0F6FD01A4480EA29
:100D7000010C400218BF5FEA41211ED04FF0006312
:100D800043EA501043EA5111A0FB01310CF000403E
:100D9000B1F5000F3EBF490041EAD3715B0040EA64
:100DA000010062F17F02FD2A1DD8B3F1004F40EB34
:100DB000C25008BF20F00100704790F0000F0CF007
:100DC000004C08BF49024CEA502040EA51207F3ACB
:100DD000C2BFD2F1FF0340EAC250704740F40000A6
:100DE0004FF00003013A5DDC12F1190FDCBF00F097
:100DF00000407047C2F10002410021FA02F1C2F145
:100E0000200200FA02FC5FEA310040F1000053EAE0
:100E10004C0308BF20EADC70704792F0000F00F02E
:100E2000004C02BF400010F4000F013AF9D040EA34
:100E30000C0093F0000F01F0004C02BF490011F4C8
:100E4000000F013BF9D041EA0C018FE70CEAD153C6
:100E500092EA0C0F18BF93EA0C0F0AD030F0004C46
:100E600018BF31F0004CD8D180EA010000F00040FA
:100E7000704790F0000F17BF90F0004F084691F0B8
:100E8000000F91F0004F14D092EA0C0F01D14202F2
:100E90000FD193EA0C0F03D14B0218BF084608D1BB
:100EA00080EA010000F0004040F0FE4040F4000005
:100EB000704740F0FE4040F4400070474FF0FF0C98
:100EC0001CEAD0521EBF1CEAD15392EA0C0F93EADF
:100ED0000C0F69D0A2EB030280EA010C49024FEA31
:100EE000402037D04FF0805343EA111143EA1013EA
:100EF0000CF000408B4238BF5B0042F17D024FF4A2
:100F0000000C8B4224BF5B1A40EA0C00B3EB510F7C
:100F100024BFA3EB510340EA5C00B3EB910F24BF65
:100F2000A3EB910340EA9C00B3EBD10F24BFA3EBEA
:100F3000D10340EADC001B0118BF5FEA1C1CE0D1B2
:100F4000FD2A3FF650AF8B4240EBC25008BF20F065
:100F5000010070470CF0004C4CEA50207F32C2BFB9
:100F6000D2F1FF0340EAC250704740F400004FF056
:100F70000003013A37E792F0000F00F0004C02BF87
:100F8000400010F4000F013AF9D040EA0C0093F051
:100F9000000F01F0004C02BF490011F4000F013BAB
:100FA000F9D041EA0C0195E70CEAD15392EA0C0F13
:100FB00008D142027FF47DAF93EA0C0F7FF470AF4B
:100FC000084676E793EA0C0F04D14B023FF44CAF8E
:100FD00008466EE730F0004C18BF31F0004CCAD123
:100FE00030F000427FF45CAF31F000437FF43CAF5F
:100FF0005FE700BF4FF0FF3C06E000BF4FF0010C81
:1010000002E000BF4FF0010C4DF804CD4FEA400262
:101010004FEA41037FEA226C18BF7FEA236C11D0AC
:1010200001B052EA530C18BF90EA010F58BFB2EB5F
:10103000030088BFC81738BF6FEAE17018BF40F0DF
:10104000010070477FEA226C02D15FEA402C05D193
:101050007FEA236CE4D15FEA412CE1D05DF8040B18
:10106000704700BF844608466146FFE70FB5FFF7AB
:10107000C9FF002848BF10F1000F0FBD4DF808ED63
:10108000FFF7F4FF0CBF012000205DF808FB00BF54
:101090004DF808EDFFF7EAFF34BF012000205DF8AE
:1010A00008FB00BF4DF808EDFFF7E0FF94BF0120FB
:1010B00000205DF808FB00BF4DF808EDFFF7D2FFF8
:1010C00094BF012000205DF808FB00BF4DF808ED3B
:1010D000FFF7C8FF34BF012000205DF808FB00BF08
:1010E0004FEA4002B2F1FE4F0FD34FF09E03B3EB35
:1010F00012620DD94FEA002343F0004310F0004F75
:1011000023FA02F018BF404270474FF000007047CA
:1011100012F1610F01D1420205D110F0004008BF69
:101120006FF0004070474FF00000704742000ED251
:10113000B2F1FE4F0BD34FF09E03B3EB126209D412
:101140004FEA002343F0004323FA02F070474FF0C8
:101150000000704712F1610F01D1420202D14FF03D
:10116000FF3070474FF00000704700BF10B50021FE
:101170000446FFF78DFF20B92046BDE8104000F07F
:101180000BB804F1004000F007F8424261EB410364
:101190001046194610BD00BF70B5FFF747F9002390
:1011A0000022C3F6F05304460D46FFF793F9FFF70C
:1011B00053FC0646FFF718F900230022C4F2F0138F
:1011C000FFF788F902460B4620462946FEF7CEFF78
:1011D000FFF742FC002202431046314670BD00BFBB
:1011E0002DE9F041057890B000350646334818BF28
:1011F00001250FF069F800243148A542314B0CBF9E
:101200002146802106904FF400500CBF4FF001089A
:101210004FF002084FF4807205930A9120234FF497
:1012200080670E9005A925480B920D930C970794A3
:10123000CDF8208009940F940FF0BEF81F480121CB
:101240000FF0DAF84FF46021012702911E48694639
:1012500000948DF804508DF8057003948DF810807B
:101260000EF094FF184804213A4603230EF0DFFFE6
:101270002DB115483178022203230EF0D8FF124811
:1012800001210EF0B0FF104801210EF0A3FF0E481F
:101290000EF0B2FF0C480EF0B4FF0028FAD10A4855
:1012A0000EF0B3FF08480EF0B5FF0028FAD106484B
:1012B00001210EF0B3FF10B0BDE8F081080002403C
:1012C000A40400204C24014000240140024B33F8C8
:1012D000100080B2704700BFA404002070470000D7
:1012E0002E4B2DE9F34105461878002838D000240C
:1012F00026462746A0463221082253206B460DF091
:1013000021FC9DF801109DF80000013400EB012341
:101310009DF803109DF802001AB200EB01239DF81E
:1013200005109DF80400E4B290441AB200EB0123CA
:101330009DF80710BF18202C1AB2164401F07F0048
:1013400001D00028D7D1164B98FBF4F897FBF4F79F
:1013500096FBF4F6A5F800806F80AE801C701AE052
:10136000322106226B4653200DF0ECFB9DF8012044
:101370009DF800109DF8030001EB02239DF8022068
:101380002B8002EB00219DF804309DF80500698058
:1013900003EB0022AA80BDE8FC8100BFA804002066
:1013A000A904002008B5124B53201B782D210822D8
:1013B0007BB10DF08BFC31210A2253200DF086FC0D
:1013C0002C210C2253200DF081FC53203821902237
:1013D00009E00DF07BFC31210A2253200DF076FC50
:1013E00053202C210A22BDE808400DF06FBC00BF3D
:1013F000A804002037B5114B05461A6810480C4662
:10140000002182428DF8071001D1002015E0532001
:1014100001220DF107030DF095FB0028F5D09DF892
:101420000710E529F1D12A78064B07481A700749B9
:10143000074A20606160A26001203EBD30000020AC
:10144000001BB700A8040020A5130008E112000843
:10145000DD12000870B5444B444C1A886089258918
:10146000111A6943B4F91230B4F91400CE13DA0238
:10147000311892FBF1F576193046FFF717FC4FF063
:101480008241FFF75FFB3A49FFF764FC394BB4F93F
:1014900004501860A6F57A6303FB03F2B4F90C005C
:1014A000111348435D43061406EB6535A81C8610EE
:1014B000E08806F50045B4F91C204543B4F90E60F8
:1014C000B4F90000B4F9024071436343DB1203EB4B
:1014D000E12101EB800000FA02F0841C4CF2503054
:1014E00040FA02F0244BED0B1968A1EBA404604311
:1014F0000DD4FFF7D7FB0146FFF724FB044628462F
:10150000FFF7D0FB01462046FFF7D8FC0CE0FFF7C1
:10151000C9FB04462846FFF7C5FB01462046FFF7F6
:10152000CDFC0146FFF70EFB4FF06E510446FFF76E
:1015300011FC0146FFF70EFC1049FFF70BFC1049A8
:1015400005462046FFF706FC01462846FFF7FAFA53
:101550000C49FFF7F7FA4FF07651FFF7FBFB014616
:101560002046FFF7EFFA70BDD2040020AC04002043
:10157000CDCCCC3B58200020CC04002000E03D3DE9
:1015800000E8E5BD00F06C4507B5F621032201AB8C
:1015900077200DF0D7FA9DF805209DF80430100251
:1015A000074A40EA03419DF80630B2F91C0019438E
:1015B000C0F1080321FA03F1024A11600EBD00BF19
:1015C000AC040020CC04002007B5F621022201ABB8
:1015D00077200DF0B7FA9DF804209DF805300249F8
:1015E00043EA022008800EBDD2040020064B0748C3
:1015F0001A7F002192013432017002F0FC02772040
:10160000F4210DF063BB00BFAC040020AA0400204D
:10161000034B00221A707720F4212E220DF056BBC6
:10162000AA04002010B54FF480400EF041FF0128BD
:10163000044605D14FF480400EF04AFF014B1C7068
:1016400010BD00BFAA0400202DE9F0476C4B0546F1
:101650001A686C488CB0824200F0CB80DFF8C4A1DD
:101660009AF80080B8F1000F40F0C580664F102155
:1016700002264FF400598DF80B10384602A94FF49A
:1016800080448DF80A60ADF808900EF0AFFF042397
:10169000384602A98DF80B30ADF808400EF0A6FFD1
:1016A0000E213046C7F810900FF002F801260822EC
:1016B00004A88DF8152004948DF814808DF8166018
:1016C0000EF0BAFE28200F218DF80C0003A88DF82B
:1016D0000D108DF80E108DF80F600EF023FD142004
:1016E0000DF08FFB7720D02132460DF107030DF06E
:1016F00029FA9DF80730454C0322552BE375A28348
:1017000018BFC7F8149074D1D12132460DF10703E8
:1017100077200DF017FA9DF80700162200F00F0150
:10172000030921766376AA2106AB77200DF00AFA29
:101730009DF818209DF819009DF81B3040EA022101
:101740009DF81A20218043EA02209DF81C109DF884
:101750001D20608042EA01239DF81E009DF81F10A5
:10176000A38041EA00229DF821309DF82000E2800C
:1017700043EA00219DF822209DF82300218140EAC0
:1017800002239DF824109DF82520638142EA012060
:101790009DF827309DF82610A08143EA01229DF88C
:1017A00028009DF82910E28141EA00239DF82A20B3
:1017B0009DF82B00238240EA02219DF82D309DF8F0
:1017C0002C20618243EA0220114B41F2941145F230
:1017D000E472A0828AF800600E4829806A80AB60BB
:1017E0000D490E4A0E4B2E71E86029616A61AB61AA
:1017F00001E0002000E001200CB0BDE8F08700BF50
:1018000030000020001BB70000100140AC04002095
:1018100011160008C9150008ED1500088915000803
:1018200055140008D00400202DE9F04F614B85B01D
:101830001868FFF737FADFF8A0B10446BBF80A00D2
:10184000FFF730FA4FF08741FFF784FA0146204650
:10185000FFF776F98046FFF789FCBBF80C500027AC
:10186000A0FB052301FB0530BBF804104FEAD25A58
:101870004AEA402A0E0440464FF07051FFF76AFAD8
:101880000446BBF80800FFF70DFA01462046FFF7B3
:1018900061FAFFF76BFCBBF80220361847EB010733
:1018A00040464FF06E51D403FFF754FA0346BBF89D
:1018B00006000193FFF7F6F901460198FFF74AFA8F
:1018C000FFF754FC00250AF5FA69001941EB050100
:1018D000B9F5FA6FCDE9020135DA41464046FFF726
:1018E00039FA4FF04051FFF735FA83465046FFF77B
:1018F000DDF90146FFF72EFA2F490446FFF72AFAD1
:101900002E4980462046FFF725FA2D490546894590
:101910001CDA0AF6AC50FFF7C9F90146FFF71AFACC
:1019200028498246FFF716FA01464046FFF70AF9B2
:10193000254980465046FFF70DFA01462846FFF735
:1019400001F9054602E00025A846AB464846FFF7E8
:10195000ADF95946FFF7F4F8FFF7C2FBFFF7A6F918
:101960001A49FFF7F7F91A4A1A4B10602846D3F8BC
:101970000090FFF7FBFBDDE90245201A65EB010152
:10198000A9FB002309FB0130550D45EAC02445158C
:101990004046FFF7EBFB301A67EB0101241A65EBB9
:1019A0000105E10B41EA4540E913FFF795F905B060
:1019B000BDE8F08FD8040020000020400000A03FC8
:1019C00024FAFFFF0000E0400000B0400AD7233CAB
:1019D00058200020D4040020DC04002007B500219A
:1019E000032201AB77200DF0ADF89DF805009DF8BE
:1019F000043001029DF8062041EA034010430EBD69
:101A000008B5FFF7EBFF08B1014B186008BD00BF38
:101A1000D404002008B5FFF7E1FF08B1014B1860BE
:101A200008BD00BFD80400207720482101220DF016
:101A30004DB97720582101220DF048B94E4BF7B52A
:101A400004461A684D4882420FD010258DF8065082
:101A50004B4D02214FF400568DF80710284601A97E
:101A6000ADF804600CF008FE6E617720A021012221
:101A70000DF103030DF066F800287BD000256420EB
:101A80000DF0BFF91E21012277200DF01FF964200F
:101A90000DF0B7F900208DF803009DF80360072EC4
:101AA0001ED800220A208DF804208DF805200DF0A4
:101AB000A8F906F150014B0003F0FE01022201AB30
:101AC00077200DF03FF89DF804009DF805202D4B80
:101AD00042EA002123F816109DF80360701CDAE733
:101AE00032200DF08EF96B1CDDB20A2D2ED0254F61
:101AF0000023FA89194622F0FF0002F00F06F88150
:101B00001A462048570830F8170012F0010F40EA33
:101B1000010103D0C0B24340082002E083EA102351
:101B2000FAE713F4004F4FEA430318BF83F440531E
:101B3000013810F0FF009BB2F3D10132D2B2102A6B
:101B4000DFD1B6EB133F9AD1002998D00E4842F26C
:101B500050310223A0600D482180618023710C4A1E
:101B60000C490D4BA061B5F10A00E260216163618F
:101B700018BF0120FEBD00BF30000020001BB700D1
:101B800000100140DC040020331A00082918000866
:101B9000151A0008291A0008011A0008114B10B57F
:101BA000114819880EF07AFD104C18B10DF0FEF8AE
:101BB000206010E00DF0FAF8216888420BD9401A35
:101BC000AE280B4B05D90B4A1188884201D21880E8
:101BD00001E000201880084B1868BDE810400EF0A6
:101BE00077BC00BFF2040020000C0140FC04002080
:101BF000F4040020F0040020F8040020FFF7CEBF1A
:101C0000FFF7CCBF01287FB504461DD00DD30228B5
:101C100028D14FF47A700DF0F4F8224620203221BA
:101C200002AB0CF08FFF04466DE0384B3849394D5C
:101C3000394C4FF4007009264FF4807226701A80D8
:101C400008802860172609E0304A32491080324D5A
:101C50002F48022303800B602C7007262F4C267020
:101C6000012403E001284FF000044CD82C4A92F8DC
:101C7000A431042B0BD8DFE803F003030A060600A7
:101C800045F6C05001E04FF23020264908801F4D34
:101C900002222E882448102501A98DF80620ADF8CF
:101CA00004608DF807500EF0A1FC194B0421188830
:101CB000194EADF804008DF807101B4869440EF06A
:101CC00095FC3178134E01200EF0F2FC30680EF0D6
:101CD000FFFB32688DF80D500026012502A8029204
:101CE0008DF80E508DF80C600EF0A6FB0B4B18789B
:101CF0000E4B00F01F0205FA02F541B20C484909EB
:101D000043F821500660204604B070BD0005002055
:101D1000F2040020F8040020F7040020F60400205C
:101D2000F4130020F0040020000C014000E100E06A
:101D3000EC04002010B504460DF052F80D4B196864
:101D40003C31884214D318600B483A2302880B4870
:101D5000B2FBF3F121800A4C21880EF0A5FC0B2088
:101D60000DF044F8054821880EF0A0FC012010BDBC
:101D7000002010BDEC040020F4040020000C014001
:101D80000005002010B504460DF02AF8074B19682D
:101D90006431884208D3186005483A23028801203C
:101DA000B2FBF3F1218010BD002010BDEC04002037
:101DB000F404002013B504460DF012F80F4B1A6816
:101DC0003C32904217D3186032212020022201AB0E
:101DD0000CF0B8FE58B19DF805209DF8043043EA98
:101DE00002210BB23A2293FBF2F189B201E04FF6E5
:101DF000FF71218000E000201CBD00BFEC0400202A
:101E000007B51E200A21032201AB0CF09BFE80B116
:101E10009DF80430482B0BD19DF80500342807D1DC
:101E20009DF80610B1F13302534253EB020000E07B
:101E300000200EBD13B50622044603216B461E206A
:101E40000CF080FE9DF800209DF801309DF80210F6
:101E500043EA02209DF80320208042EA01239DF8F6
:101E600004009DF80510638041EA0022A280022050
:101E700021460AF0D7FF1CBD2DE9F04381468BB007
:101E80006A480AAC07C804E907006949694A0D684D
:101E9000002395420493059306930DD10220042458
:101EA0004FF480538DF80700ADF804308DF80640EC
:101EB00061480DEB040108E0604EB54207D10AA964
:101EC0004FF480475E4821F8247D0CF0D5FB642058
:101ED0000CF097FF00211E2011220CF0F7FE59494B
:101EE0001E2091F8655001212DB160220CF0EEFE0C
:101EF000DFF8588104E040220CF0E8FEDFF8508162
:101F000064200CF07EFF02A8FFF794FF0A2701254A
:101F1000022101221E200CF0D9FE64200CF071FF7A
:101F200002A8FFF787FF002402AA105F40F2FE73A9
:101F300080EAE076A6EBE0769E42C8BF0025FEF779
:101F4000B5FE04AE014656F81400FEF7FBFD46F858
:101F500014000234062CE7D13748013FC16817F05E
:101F6000FF0781F01002C260D2D11E203946122232
:101F70000CF0ACFE0A24022101221E200CF0A6FE69
:101F800064200CF03EFF02A8FFF754FF002602ABCE
:101F9000985F40F2FE7280EAE071A1EBE07191423D
:101FA000C8BF0025FEF782FE04AF014657F81600B1
:101FB000FEF7C6FD47F816000236062EE7D11E488A
:101FC000013CC36814F0FF0483F01001C160D2D15A
:101FD000214678221E200CF079FE012120221E20AD
:101FE0000CF074FE224602211E200CF06FFE6420CD
:101FF0000CF007FF144A15706DB107ABE15840466D
:10200000FEF7A8FE04A96158FEF758FF20F0004231
:1020100049F8042003E04FF07E5049F804000434EE
:102020000C2CE9D10BB0BDE8F08300BFC45F010800
:102030003000002000127A00000C0140001BB700A5
:1020400000100140F4130020C313002000404E464E
:10205000002080461FB5394C2378BBB9384A7A2115
:102060008DF8041037481168FEF76AFD4FF07C5177
:10207000FEF770FEFFF75AF8FF218DF805000222E7
:102080006D2001AB0CF0C0FD012154E0012B3BD1D0
:1020900079248DF804402C4C2068FFF721F86FF468
:1020A000637302B29A4209DB40F28D30824207DC50
:1020B0000A2392FBF3F25A32D1B202E0002100E08F
:1020C000B42160688DF80510FFF70AF86FF46371AA
:1020D00000B2884209DB40F28D33984207DC0A21C6
:1020E00090FBF1F05A30C2B202E0002200E0B422CC
:1020F0008DF8062001AB03226D20FF210CF084FD3A
:102100000E4B02221A7017E0022B15D10F4A6420E1
:1021100053788DF804000121002B14BF012000200A
:102120008DF805108DF80600FF216D20032201AB0C
:102130000CF06AFD002121701FBD00BF02050020C8
:102140008C21002000003443C809002076200020A4
:1021500007B56B230A208DF804308DF805008DF843
:102160000600FF216D20032201AB0CF04DFD0EBDDA
:10217000038842885942534201804380704713B517
:102180000622044601216B461C200CF0DBFC9DF866
:1021900000209DF801309DF8021043EA02209DF8CE
:1021A0000320208042EA01239DF804009DF80510D9
:1021B000638041EA0022A2801CBD000013B5042107
:1021C000202302248DF8071018486944ADF8043024
:1021D0008DF806400EF00AFA2A2100221C200CF08D
:1021E00075FD22460E211C200CF070FD0F210322EC
:1021F0001C200CF06BFD2B2112221C200CF066FD24
:1022000022462C211C200CF061FD2D2101221C20D6
:102210000CF05CFD2E2100221C200CF057FD2A2121
:1022200005221C200CF052FD1CBD00BF000801401F
:1022300013B5044611481249026800238A428DF8FA
:10224000073001D1002017E01C200D2101220DF1E3
:1022500007030CF077FC0028F4D09DF807302A2BF8
:1022600001D01A2BEED10748074A206007490848D9
:1022700062600370A16001201CBD00BF300000201F
:10228000001BB700BD2100087F2100087121000854
:1022900003050020838859428180704713B50222CC
:1022A00004461B2101AB68200CF04CFC9DF8053066
:1022B0009DF8040043EA002108B2FEF7F7FC054947
:1022C000FEF740FC0449FEF7F9FD0449FEF73AFC2D
:1022D00020601CBD00404E4600008C4300000C42B4
:1022E00013B5062204461D216B4668200CF02AFC1B
:1022F0009DF800209DF801309DF8021043EA02206D
:102300009DF80320208042EA01239DF804009DF8F7
:102310000510638041EA0022A2801CBD08B5192087
:102320000CF06FFD6820152100220CF0CFFC10B9D5
:1023300003200CF007FE0C4B16211A78682042F09F
:1023400018020CF0C3FC1721002268200CF0BEFC20
:102350003D21012268200CF0B9FC68203E210122B9
:10236000BDE808400CF0B2BC0000002010B50446E7
:1023700019200CF046FD6820152100220CF0A6FC67
:1023800040B10548054B0649064A60602360A160DC
:10239000E260012010BD00BFE12200081D230008FB
:1023A000952200089D2200082A28104B13D005D83A
:1023B0000A2812D0142812D104220FE0BC2808D019
:1023C000B0F5807F03D0622809D1022206E0002206
:1023D00004E0012202E0032200E005221A701B78CB
:1023E0006820162143F018020CF070BC0000002099
:1023F0007047038842885942028041807047838831
:10240000594281807047000013B5022204464121E1
:1024100001AB68200CF096FB9DF805309DF8040098
:1024200043EA002108B2FEF741FC0449FEF746FDED
:102430000349FEF787FB20601CBD00BF0000AA43D4
:10244000B81E124213B50622044643216B4668208B
:102450000CF078FB9DF800209DF801309DF80210EB
:1024600043EA02209DF80320208042EA01239DF8E0
:1024700004009DF80510638041EA0022A2801CBD83
:1024800013B5062204463B216B4668200CF05AFB2C
:102490009DF800209DF801309DF8021043EA0220CB
:1024A0009DF80320208042EA01239DF804009DF856
:1024B0000510638041EA0022A2801CBD07B52E4AA8
:1024C00002204FF40053ADF804308DF80700136874
:1024D0002A48042183428DF8061001D1284803E0E0
:1024E00028498B4203D1284801A90CF0C5F86B217B
:1024F000802268200CF0EAFB05200CF082FC1921F8
:10250000002268200CF0E2FB6B21032268200CF013
:10251000DDFB0222682037210CF0D8FB1B4AB2F801
:102520007630142B12D004D8052B13D00A2B0BD1E4
:102530000EE0BC2B10D0B3F5807F03D0622B03D10B
:1025400002220AE0002208E0032206E0042204E05E
:10255000052202E0062200E001221A2168200CF088
:10256000B5FB1B21182268200CF0B0FB68201C2151
:1025700008220CF0ABFB0EBD3000002000127A00E8
:10258000000C0140001BB70000100140F4130020B4
:10259000F0B5064685B023200C460CF032FC6820CE
:1025A000752101220DF107030CF0CCFA00284BD065
:1025B0009DF80770682F46D106210A4602AB3846BF
:1025C0000CF0C0FA9DF80B309DF80D5003F001019E
:1025D00005F001004A0042EA80059DF8090000F07C
:1025E00001031D4308D0012D01D118481AE0022D26
:1025F0000ED10023154813E00C21012238460DF1BD
:1026000007030CF09FFA9DF8071011F00F0203D199
:1026100005200CF097FC06E0042A0C4802D10123A7
:10262000037000E005700A490A4A0B483160726085
:10263000B0600A4B0A480B490B4AE06023606160B6
:10264000A260012000E0002005B0F0BD04050020DC
:10265000F123000881240008F3230008BD240008AA
:102660000924000845240008FF2300087FB505461B
:1026700014460E460E223B216B4668200CF062FA8F
:102680009DF800209DF801309DF8021043EA0220D9
:102690009DF80320288042EA01239DF804009DF85C
:1026A00005106B8041EA00229DF807309DF8060076
:1026B000AA8043EA002108B2FEF7F8FA0E49FEF7B5
:1026C000FDFB0E49FEF73EFA9DF8082030609DF8AC
:1026D00009009DF80A1040EA02239DF80B20238090
:1026E00042EA01209DF80D309DF80C10608043EA0D
:1026F0000122A2807FBD00BF0000AA43B81E124283
:10270000038882885942534201808380704713B501
:102710000622044628216B4668200CF013FA9DF827
:1027200000209DF801309DF8021043EA02209DF838
:102730000320608042EA01239DF804009DF8051003
:10274000238041EA0022A2801CBD000008B564205D
:102750000CF057FB68202321F0220CF0B7FA10B9D7
:1027600003200CF0EFFB05200CF04BFB044B682022
:102770001A78202142F00F02BDE808400CF0A6BAFA
:102780000505002013B5044619200CF03AFB68201B
:102790000F2101220DF107030CF0D4F99DF8073049
:1027A000D32B07D104480549054A20606160A26027
:1027B000012000E000201CBD4D2700080F27000865
:1027C0000127000836280C4B0AD003D820280BD14B
:1027D000002208E04E2805D05D2805D1C02202E085
:1027E000402200E080221A701B786820202143F0EC
:1027F0000F020CF06BBA00BF0505002030B585B0A4
:10280000044601A80D460EF083FA0B4B0B481A68DC
:10281000013DB2FBF0F14B1E0022204601A9ADF8AC
:102820000850ADF80430ADF80A20ADF806200EF0DF
:1028300027F905B030BD00BF3400002040420F0032
:102840007FB5044601A80D4616460EF074FA002026
:102850000123ADF80A00ADF80C0001A92046ADF83F
:102860000450ADF80660ADF808300EF0E3FA7FBD15
:10287000154B142210B502FB003202F10803DC787C
:1028800064B999800121D970104B00011A18117B8D
:1028900018580222BDE81040FFF7D2BF9C88D980AB
:1028A000091B89B29C781182094A000122F8141090
:1028B0000024DC70054B22461918097B1858FFF7D5
:1028C000BFFF044A148010BD2C05002014600108CD
:1028D00006050020F60C002070B50D4602210446C6
:1028E0000EF051FB012820460BD102210EF056FBC1
:1028F0006BB2142253432348C65820460EF036FBD1
:102900003CE004210EF03FFB01280ED101352046AA
:102910000421EDB20EF042FB68B214214843194E77
:10292000365820460EF025FB28E0082120460EF000
:102930002AFB01280ED1A91CCDB2204608210EF099
:102940002DFB6EB214235E430E4A204696590EF0BC
:1029500013FB13E0102120460EF015FB012810D1C7
:1029600003352046EDB210210EF018FB6BB2142295
:1029700053430448C65820460EF001FB0146284642
:10298000B04770BD2C050020114A124813881180F1
:10299000C91A89B240F68C22914203800E4B02D9AB
:1029A000002018707047A1F2EF2080B240F2DA5296
:1029B000904205D81B78112B9CBF084A22F81310AF
:1029C0000549074B0878421C0A700021198070479E
:1029D0006A060020A2060020A006002006050020AE
:1029E000F60C00202DE9F04F464BDFF81C81142532
:1029F00005FB00350746000158F8004087B008EB9A
:102A000000062046FFF7FAFED6F804B001A806F14A
:102A1000080AB6680DF03AFE18218DF807104FF03D
:102A2000020901A95846ADF804608DF806900DF032
:102A3000DDFD02A89AF804600EF073F97022ADF87B
:102A40000820012300204FF47A714FF48072ADF812
:102A50000A30ADF80C00ADF80E10ADF81090ADF8DE
:102A600014200C2E2BD8DFE806F0072A2A2A102A79
:102A70002A2A192A2A2A2200204602A90EF04AF8F8
:102A8000204608210EF082F919E0204602A90EF036
:102A900085F8204608210EF081F910E0204602A9B1
:102AA0000EF0C0F8204608210EF082F907E020461B
:102AB00002A90EF0F9F8204608210EF081F908EB82
:102AC0000717BB7B1BB1204601210EF048F92046B9
:102AD00001210EF038F90C2E10D8DFE806F0070FB0
:102AE0000F0F090F0F0F0B0F0F0F0D00343404E001
:102AF000383402E03C3400E040346C60284607B0D3
:102B0000BDE8F08F2C050020146001082DE9F04F7E
:102B1000304B4FF0140808FB00F800011C5885B03A
:102B20001D188A4620464FF6FF719346FFF766FE52
:102B3000696805F1080702A8AD6801910DF0A6FDCE
:102B400002232822019802A98DF80A30ADF8085016
:102B50008DF80B200DF04AFD3D79002220462946D4
:102B6000FFF76EFEDFF87090204601210EF0EBF8C3
:102B700079790123002209EB080603A88DF80C10CF
:102B80008DF80D208DF80E308DF80F300DF0CAFA4B
:102B900049F808A086F80AB00C2D16D8DFE805F031
:102BA000071515150A1515150D15151510002046D4
:102BB000022107E02046042104E02046082101E02C
:102BC0002046102101220EF0D8F8304605B0BDE8AD
:102BD000F08F00BF146001082C050020022110B501
:102BE00012480EF0D0F9012810480BD102210EF046
:102BF000D5F90F48D0F8A0400C480EF0B7F90146BF
:102C0000082010E010210EF0BEF901280CD110218F
:102C100006480EF0C3F9064B0448D3F8B4400EF052
:102C2000AEF901460920A04710BD00BF002C0140AD
:102C30002C0500204FF080400021FFF74DBE000022
:102C400001480421FFF748BE0004004001480A2162
:102C5000FFF742BE000800402DE9F0410446437AE8
:102C60006278002B14BF022000201AB1002814BF84
:102C7000032001203D49002551F820707A5DFF2A8C
:102C800002F00F0002F0F0036CD0A17811B1811EA8
:102C9000012964D9A17A09B1814260D0E17809B1F2
:102CA00004285CD0217909B1052858D0A17919B13F
:102CB000A0F10C01012952D9617911B1811F0129BB
:102CC0004DD912F0300F03D02278002A08BF00231C
:102CD000617A61B9E27922B1A0F10801012998BFB6
:102CE0008023227A1AB1032801D9072826D9202B5C
:102CF0000FD009D8102B32D11D490022FFF706FF53
:102D00001C4B082018702AE0402B0BD0802B26D1BA
:102D100014E0184E18493278FFF7F8FE3078421C5C
:102D200032701CE0A2891549154E91FBF2F399B25D
:102D300096F80080FFF756FE124B0AE0E3890F4930
:102D4000114E91FBF3F291B296F80080FFF74AFE24
:102D50000E4B43F8280008F1010886F80080013581
:102D60000E2D8BD10020BDE8F08100BFF46001087A
:102D700089290008440600207128000840420F00FD
:102D800068060020700600206C060020480600201F
:102D9000044B1A78824204D9034B53F8200042684E
:102DA000118070476806002070060020044B1A78D6
:102DB000824204D9034B53F82000426811807047C7
:102DC0006C06002048060020014B33F810007047C5
:102DD0000605002037B50E4B0E4C93F88F0118B145
:102DE000012803D1802100E04021218002258DF8B7
:102DF0000650094D22881023284601A9ADF8042069
:102E00008DF807300DF0F2FB208868613EBD00BFF1
:102E1000F4130020A40600200008014018B911484E
:102E2000114B01881CE0114B11491A78501CC2B299
:102E300008781A70904214D10E4800221A70037854
:102E40000122591C0170C3F3440002FA00F30A493D
:102E5000044A086811880342034B01D01961704786
:102E600059617047A406002000080140A606002012
:102E700012000020A7060020140000204FF47A73EF
:102E8000B0FBF3F142F21072B0FBF2F030316FF0B0
:102E9000090303FB0011C8B270476423B0FBF3F1D0
:102EA0004FF47A72B0FBF2F030316FF0090303FB9C
:102EB0000011C8B270470A23B0FBF3F16422B0FBE3
:102EC000F2F030316FF0090303FB0011C8B2704714
:102ED0000A2200F130036FF00901B0FBF2F001FBB0
:102EE0000033D8B270470000084B0246187801281A
:102EF00005D0022808D106490878002102E0044BD9
:102F0000802118780BF0E2BE704700BFC413002088
:102F1000B2060020054B02461878411E012904D84C
:102F2000034B402118780BF0D1BE7047C41300202A
:102F3000B20600200D4A2038052101FB002070B5A3
:102F40000B4B046805791C601D715C1E1E1D094D2C
:102F500060782B78584004F8010FFFF7DBFFB4428C
:102F6000F5D12878BDE87040FFF7D4BFCD610108E6
:102F7000A8060020B306002010B5441E14F8010F67
:102F800010B1FFF7D7FFF9E710BD000010B5194BDE
:102F90001878411E01292BD8A620FFF7A5FFAE20E7
:102FA000FFF7A2FF2020FFF79FFF0020FFF79CFF05
:102FB000B020FFF799FF4020FFF796FF0020FFF7B2
:102FC00093FF1020FFF790FF4FF48064013C002036
:102FD000A4B2FFF79FFF002CF8D18120FFF784FFF8
:102FE000C820FFF781FFAF20BDE81040FFF77CBF8E
:102FF00010BD00BFC413002008B5094B19784A1E44
:10300000012A0BD85038C0B2FFF76EFF0020FFF73F
:103010006BFF1020BDE80840FFF766BF08BD00BF8A
:10302000C413002007B53C20A02101220DF10703A5
:103030000BF088FD28B1364B3C2119700120354B2F
:103040000CE00DF107033D20A02101220BF07AFDD9
:10305000304B28B12E4A3D2111700220187000E03B
:1030600018702C4A1078411E01294FD8AE20FFF766
:103070003BFFD520FFF738FF8020FFF735FFA82062
:10308000FFF732FF3F20FFF72FFFD320FFF72CFF82
:103090000020FFF729FF4020FFF726FF8D20FFF7D4
:1030A00023FF1420FFF720FF2020FFF71DFF002043
:1030B000FFF71AFFA120FFF717FFC820FFF714FF43
:1030C000DA20FFF711FF1220FFF70EFF8120FFF734
:1030D0000BFFCF20FFF708FFD920FFF705FFF120F6
:1030E000FFF702FFDB20FFF7FFFE4020FFF7FCFEAB
:1030F000A420FFF7F9FEA620FFF7F6FE14200BF040
:1031000080FE0120FFF778FF012000E000200EBDC7
:10311000B2060020C4130020044B19784A1E012A6D
:1031200003D80138C0B2FFF767BF7047C41300204F
:1031300038B5124C002305462370FFF773FFE0B14A
:103140000DB1012020700E490A78531E012B13D8AF
:10315000FFF71CFF0120FFF7DFFF0A48FFF70CFF16
:103160000320FFF7D9FF0848FFF706FF0420FFF709
:10317000D3FF0648FFF700FF012038BDC51300202C
:10318000C4130020136101081F61010835610108A3
:1031900010B5084B044619784A1E012A09D8FFF7D2
:1031A000BBFF05480CF052FA2046BDE81040FFF77F
:1031B000B3BF10BDC41300204B6101082DE9F04FCF
:1031C000C34B8DB01A78501CC1B21D2901D819709B
:1031D0007BE1C04D00241C702868FDF781FFBE4EC6
:1031E00002B2BE4906A80CF04FFA96F86070012FA3
:1031F00017D12868FDF774FFB94902B204A80CF092
:1032000043FA9DF810309DF811209DF812009DF8AA
:1032100013108DF81E308DF81F208DF820008DF8CA
:1032200021100120FFF778FFAE4C06A8FFF7A4FE9F
:10323000AD4906A80CF028FA2578AC4E2846FFF7D1
:103240002CFE8DF81E002846FFF735FE8DF81F0076
:103250002846FFF73DFE37688DF8210000213846EB
:10326000FDF716FF08B12D2300E0202338468DF826
:103270002830FDF75BFF632804D96422B0FBF2F02D
:1032800084B200E0002442F21075B4FBF5F1303155
:1032900020468DF82910FFF7F1FD8DF82A00204611
:1032A000FFF7FBFD8DF82B002046FFF704FE8DF89D
:1032B0002C000220FFF730FF06A8FFF75DFE06A8EE
:1032C0008B490CF0E1F9DFF864C28A4ADCF800109F
:1032D000894BDFF85CB291FBF2F791FBF3F0002928
:1032E000ACBF4E2653260A24303730308DF81E608E
:1032F00091FBFBF68DF8207004FB06077F48804E9B
:1033000091FBF0F08DF82170303091FBF6F704FB63
:1033100007007C4E7C4F8DF8220091FBF6F0303098
:1033200091FBF7F604FB0600784F794E8DF82400E8
:1033300091FBF7F0303091FBF6F704FB0700754E78
:103340008DF8250091FBF5F091FBF6F7303004FB8A
:1033500007004FF47A78DFF8DCA191FBF8F791FBD6
:10336000FAF630378DF8260004FB06704FF064093A
:10337000694F8DF8270091FBF9F091FBF7F630309B
:1033800004FB06006FF063078DF8280091FBF4F052
:1033900091FBF7F6303004FB06006FF009068DF85C
:1033A000290001F1300091FBF6F104FB01008DF8DA
:1033B0002A00032002920193CDF80CC0FFF7ACFE67
:1033C00006A8FFF7D9FD06A854490CF05DF9DDF811
:1033D0000CC0029BDCF804100029ACBF4522572228
:1033E00091FBF3F08DF81E20019A303091FBF2F33F
:1033F0008DF82000414891FBFBFB3033404A04FB31
:103400000B3B91FBF0F3303391FBF2F004FB003304
:103410003C4A3D488DF8223091FBF2F3303391FB6A
:10342000F0F204FB02333948394A8DF8243091FB1D
:10343000F0F3303391FBF2F004FB0033354A8DF8A2
:10344000253091FBF8F391FBF2F091FBFAF891FB38
:10345000F5F53033304A04FB083A91FBF9F991FB5A
:10346000F4F33035303391FBF7F791FBF6F604FBBC
:10347000005509F1300991FBF2F001F1300204FB33
:10348000073704FB009804FB062404208DF821B0C4
:103490008DF826508DF827A08DF828808DF829709A
:1034A0008DF82A40FFF738FE06A8FFF765FD1C4B94
:1034B00006A81A781B4B1C491B7B0CF0E5F805206D
:1034C000FFF72AFE06A8FFF757FD0DB0BDE8F08F05
:1034D000B40600208C210020F41300206261010852
:1034E00071610108E02000207561010800200020C2
:1034F0008B61010800CA9A3B00E1F50580969800AF
:10350000001F0AFA40420F00806967FFA086010091
:10351000C0BDF0FF6079FEFF18FCFFFFA16101084C
:103520004521002076200020B761010830210020CD
:10353000003665C4F0D8FFFF10B5044614F8013B0F
:1035400063B10B4890F85611012902D107200BF006
:1035500058FC14F8010C0BF0C1FEEFE70BF0D8FE9D
:103560000028FBD01E20BDE810400BF04ABC00BF75
:10357000F413002070B5086020B948608860C86006
:10358000086170BD086104200B1D012400228242E5
:103590000DD053F8045C53F8046BB54204DD43F8D6
:1035A000086C43F8045C00240132D2B2EFE7013822
:1035B000C0B2002CE8D070BD244BF0B51D68244C7F
:1035C00014F8016FA819417801F00402D3B2002B5E
:1035D000F6D12048211A022909DD13B10A225343EA
:1035E000DBB210F8011B30395B18DBB2F2E70021C7
:1035F000844209D911B10A225143C9B210F8012BF2
:10360000303A8918C9B2F3E72E2E11D101340420C3
:1036100000220A2672432678AF197F7807F0040744
:10362000FFB217B1303A921901340138F1D100E0FC
:10363000002209484143642000FB0211062207488A
:10364000B1FBF2F100FB0310F0BD00BF5000002001
:10365000520700205307002040420F008096980038
:1036600010B50446002003460C49CA5CA2B12E2ABC
:1036700005D10133DBB27CB1C91800220A55074AD3
:103680000A21D25C4843A2F13001092901D830381F
:1036900080180133DBB2E7E710BD00BF53070020FD
:1036A0002DE9F0479E4BC4B293F85611042900F25D
:1036B000C583DFE811F0210005000A020A020500B7
:1036C000984E994D99489A4F96F800C01FFA84F881
:1036D0004FEA08292A7803783988BCF1080F00F2EC
:1036E000F480DFE81CF0E800F9000A01110145014F
:1036F000DF005F017B018601242C07D18D4A8E49B2
:103700008E48002313700B700370BAE02C2C01D08C
:103710002A2C7CD1884D89492A78894B0D78002044
:103720009854884AADB918781570472865D15978EA
:10373000502962D19878472840F06F83D97847297B
:1037400040F06B831B79412B40F0678301201070A0
:1037500063E31178012938D1022D04D1FFF72CFF42
:103760007949086049E0032D07D11978532944D1DC
:1037700075480268534203603FE0042D04D1FFF70F
:103780001BFF714B586038E0052D07D11B78572B74
:1037900033D16D494A68504248602EE0062D07D16A
:1037A00019786A48302994BF00210121017324E06F
:1037B000072D04D1FFF754FF654A10701DE0092D55
:1037C0001BD1FFF74DFF634B16E0022915D1072DE2
:1037D0000CD10120FFF744FF41F2184250434FF44F
:1037E0007A715D4BB0FBF1F0188006E0082D04D132
:1037F0000120FFF735FF594B1880504B01354E48DB
:103800001D7000232A2C037035D1012126E00D2CD8
:10381000534A01D00A2C24D11378F3B148490A78CD
:103820004978A2F13000C3B2092B84BFA2F137035B
:10383000DBB203F00F02A1F130031001DAB2092A62
:1038400084BFA1F13702D2B23A4B02F00F01401807
:103850001A78C1B2501A43424341002140480170D6
:103860000FE035490B780E2B03D83548C45401338B
:103870000B70137823B92F4A11784C40147000E074
:103880000023304A12780AB9002206E035490120A7
:103890000870002BF8D08242F6D1D30700F18E8257
:1038A000BDE8F08718194944C3B289B29A1846296D
:1038B000D2B269D900211B48002505701A48027050
:1038C0001A4A13701A4B198012E086F800C02A7049
:1038D00003703980BDE8F087622C124E2A700370A5
:1038E000398003D102223270BDE8F08700213170A7
:1038F000B52C40F0A3820B4B3BE1032304703980CD
:1039000033702C70184808E03980E31804213170B6
:10391000D9B201708A1815482A700470BDE8F08782
:10392000F4130020500700206407002063070020E4
:10393000BE060020DB060020F8060020D906002085
:1039400053070020C1060020C82000207620002058
:103950004521002086200020B82000203A0C0020BD
:10396000C0060020CA0C0020E1060020C20600208C
:103970000521E3183170D9B20170A3488A182A7062
:10398000A0F80080BDE8F087A04806240470A04895
:103990000270A04AA04813709B4B1980002101803F
:1039A000BDE8F087E318DBB2037098189A4A3980B3
:1039B000138828704F2B98BF98494FF0060A98BF7C
:1039C000CC54591C88B210808F4A86F800A0138806
:1039D000834240F0338207228C4BCCE0A3427FF439
:1039E0006AAF2A70884A0824347003701180BDE8D9
:1039F000F08703700023A2422A703980337040F0B0
:103A00001D828748874903780122032B0A7028D03A
:103A100015D8022B40F01282804B834958684860C9
:103A20009868086019694FF47A7391FBF3F07F4945
:103A30007F4B088018787F497F4B087336E0062B50
:103A400020D0122B40F0FA81744B7C4859690180D8
:103A5000996942F2107391FBF3F07949794B088030
:103A600024E06E48437913F0010305D001798B1EE1
:103A7000012B8CBF002301236D4A1370BBB96D4825
:103A8000037314E0654AD07A10F0010305D0917AEF
:103A90008B1E012B8CBF00230123654A13700BB9C9
:103AA000644803735D49684B91F82F201A70624A8D
:103AB0001178002900F0C281624B1878002800F0CC
:103AC000BD81002414701C7078E1604A604B10784E
:103AD00058B902290CBFD021D121DD2C06D118788C
:103AE000884203D16420107000E0D12112781C704C
:103AF000082A564B00F0D18010D8042A5DD006D891
:103B0000022A3BD045D8012A40F0988126E0062AB7
:103B10005049514A6FD000F2A98059E00C2A00F0B8
:103B2000F68007D80A2A4B494B4A00F0D48000F2AD
:103B3000DB80BDE00E2A00F0FA80C0F0F0800F2A92
:103B400000F00881642A40F0798101214348424A0B
:103B50001970002303701370BDE8F087202C01D189
:103B6000022100E000213C4819700378E418047039
:103B70003A4B19784A1C1A70BDE8F0873648384A23
:103B8000017814606418334A047000201070032117
:103B90002FE030490A780832D2B20A702E49182A2A
:103BA0000878204404FA02F408702D49086844EAB1
:103BB00000000860DCD104211BE0264A00202949CE
:103BC000107025480C60017864180470052110E01D
:103BD00008780830C0B2087011781828214404FA17
:103BE00000F411701F4A116844EA01011160BFD14D
:103BF00006211970BCE71C48046010782418147062
:103C000000220A700721F4E7BE06002050070020BA
:103C100064070020630700206C070020FC060020DA
:103C2000C2060020CA0C0020C820002086200020E8
:103C3000DA0600207620002062070020B82000204D
:103C40003A0C0020E006002045210020D806002084
:103C50006E0700205107002052070020BC060020FC
:103C60004C07002068070020700700200878083003
:103C7000C0B2087011781828214404FA00F41170B9
:103C80006F4A116844EA010401D0146070E76420AF
:103C9000B4FBF0F414600821ABE76A4A6A48117873
:103CA000046064181470694A002010700921A0E7AC
:103CB00008780830C0B2087011781828214404FA36
:103CC00000F41170604A116844EA010111607FF448
:103CD0004FAF0A218DE75E480460107824181470F5
:103CE00000220A700B2184E708780830C0B20870FF
:103CF00011781828214404FA00F41170544A11680C
:103D000044EA010111607FF433AF0C2171E74D4AA1
:103D1000504811780470641814700D2169E74948FF
:103D20004D4902780C70A41804700E2161E74B49CC
:103D3000444A0878212806D11178A14201D10F22E6
:103D400019E7002217E713780130E418147008709F
:103D5000BDE8F087404C424E2578012D01D901275E
:103D600000E00027D029377308D13E4B3E4A19683E
:103D700014680A204143604319601060394E3A4B81
:103D80003A4D196837682E48314B2F6002686960D8
:103D9000374C2D4D196822802E68364F0A20364C3C
:103DA0002C4DB1FBF0F23E8022802E78334F344B05
:103DB000344A012100203E7019701070324E37785D
:103DC000012F01D1002400E001243470274C2F4E34
:103DD0002F4D20683146FFF7CDFB60682946FFF77D
:103DE000C9FB1F4B1F7B47B938463146FFF7C2FB63
:103DF00038462946FFF7BEFB09E0204A107805281F
:103E000005D8B2681AB1AB680BB184E80C000AF0AF
:103E1000E7FF20490860BDE8F0871F498A78522AE9
:103E20007FF4EBACCB784D2B7FF4E7AC08794328DB
:103E30007FF4E3AC194A02211170DEE4BDE8F0879B
:103E40007007002052070020B8060020510700200C
:103E5000DC060020E206002074070020BC060020DB
:103E6000762000204C07002068070020C820002092
:103E700086200020B82000203A0C00204521002098
:103E8000CA0C0020D8060020510C0020E4060020B7
:103E9000C4060020EC13002053070020C1060020B8
:103EA00010B5002407200AF0ACFF044B185D013464
:103EB0000BF014FA0B2CF5D110BD00BF24660108DD
:103EC00038B50446002532200AF09BFF134BE85812
:103ED0000BF002FAFA200AF094FFB4F5164F0DD059
:103EE00004D8B4F5964F0ED10D480AE0B4F5614FF1
:103EF00006D0B4F5E13F06D10A4802E00A4800E0E6
:103F00000A48FFF719FB0435142DDCD120460BF0CD
:103F1000E3F9C820BDE838400AF073BF58650108CE
:103F20004D640108B36401086F64010891640108DD
:103F3000F8B53A4B002205464FF4FA601A700AF0C1
:103F400060FF0AF04DFF00F53B5000F120063349B9
:103F50000C780F463CB13A78002A5ED01020BDE8BC
:103F6000F84003F0B7BB0AF03BFFB042F3D22C4F4E
:103F700028462C4922460BF063F997F85631012B5D
:103F800003D045D3032B43D80DE02846FFF798FF15
:103F900007200AF036FF2449085D01340BF09EF932
:103FA000B82CF5D134E0214820580BF095F9C82001
:103FB0000AF027FF04341E48FFF7BEFA142CF2D192
:103FC0004FF461400BF088F9C8200AF01AFF194835
:103FD000FFF7B2FAC8200AF014FF1748FFF7ACFA4F
:103FE000C8200AF00EFF1548FFF7A6FAC8200AF00D
:103FF00008FF1348FFF7A0FAC8200AF002FF114893
:10400000FFF79AFAC8200AF0FCFE0F48FFF794FA6F
:104010004FF47A700AF0F5FE99E7F8BDCA0C00205B
:10402000F4130020A13600086C65010858650108EA
:10403000D6640108EA6401080365010815650108F2
:10404000256501083565010845650108124B012207
:1040500010B51A7004460AF0A9FE104A014610680D
:1040600011600B1A0E4841F288318B4203600D4BF0
:1040700001D900221A7018780B49E4B214280C54A4
:1040800006D10A490A4B0120002208701A8010BD8F
:10409000044A431C137010BD800700207C070020D9
:1040A0007807002075070020C6130020760700203F
:1040B000F60C002002494FF4E13001220BF0C0B8A9
:1040C0004D400008014B1878704700BF760700206C
:1040D00038B5214B0546187838B320490A78A82A04
:1040E00003D01D4A002111701FE0CC7C002CF8D1B8
:1040F00062001A4BD01C0432195C985C00EB012062
:10410000FCF772F910A3D3E90023FCF70DFB10A311
:10411000D3E90023FCF72AF8FCF79EFC104B43F888
:1041200024000134082CE3D1DBE7072D03D90D4A25
:10413000B2F8EA0038BD0C48094B415D33F8210064
:1041400038BD00BFAFF300809A99999999991940A9
:10415000000000000070774076070020C6130020A2
:1041600084070020F41300202F660108AFF30080BD
:10417000124B012210B51A7004460AF017FE104ABD
:104180000146106811600B1A0E4841F288318B42CB
:1041900003600D4B01D900221A7018780B49E4B264
:1041A0000F280C5406D10A490A4B0120002208703E
:1041B0001A8010BD044A431C137010BDD1070020A3
:1041C000A8070020CC070020D0070020DB13002028
:1041D000C8070020F60C0020094B0A4A93F8E810A3
:1041E000094819B103231370072102E00223137059
:1041F0000321017005494FF4E13001220BF020B892
:10420000F4130020A4070020D20700207141000809
:10421000014B1878704700BFC80700201B4BF0B552
:104220001978D9B11A4A1B4D14782D7802231A4AED
:104230005F1CD15C41FA04F101F00F01062907D897
:10424000D65CD25D2E4002EB0626144A42F821606D
:104250000233102BEBD10D4A002111700628104BB0
:1042600002D810490A7812B9B3F8EA00F0BD18185C
:1042700093F8E810094A90F8CC3052F8232001B1A5
:10428000520802F5777188B2F0BD00BFC807002060
:10429000A4070020D2070020DB130020AC07002079
:1042A000F4130020D10700202DE9F8430D46516892
:1042B00014461E468046FCF743FC2946FCF7FEFDEB
:1042C000C4F80480D4F80C80074621694046FCF706
:1042D00039FC3946FCF736FC184BE7601968814613
:1042E000C4F810802846FCF72DFC01462846FCF750
:1042F000E5FDA768054639464846FCF721FC01461E
:104300002846FCF727FD01463846FCF71BFCB16840
:10431000A060FCF71FFD3569044605F100463146F3
:10432000FCF7B6FE30B920462946FCF7CFFE10B1A7
:104330002C4600E034462046BDE8F883E821002002
:104340002DE9F04F4FF0000887B00590C2467B4B37
:104350000599188819B900B2FCF7A8FC4DE0784A15
:10436000002158F802402046FCF7B0FE08B904F1DD
:10437000004420460021FCF781FE08B14FF07E5436
:10438000704D95F86601FCF78DFC6F49FCF7E2FC77
:10439000814695F86301FCF785FC2146FCF78EFD0C
:1043A000FCF744F804460D460DF0D2F806464846A0
:1043B0000F46FCF73BF802460B4630463946FCF701
:1043C000FBFA90B9204629460DF0C2F800225F4B57
:1043D000FCF710FB38B9204629460DF0B9F8FCF778
:1043E0005BFB814601E04FF07E59594BB3F9000069
:1043F000FCF75CFC4946FCF7ADFC0546554800213E
:1044000058F800402046FCF761FE10B904F100475F
:1044100000E027464B49B1F86A613046FCF746FC9C
:1044200001463846FCF734FE98B196B1204600218B
:10443000FCF72EFE484A18B1136803F1004700E06C
:10444000176821462046FCF785FC3946FCF782FCBC
:104450000446424920460968FCF77CFC384E8346F6
:1044600058F80610FCF76CFB3D490446FCF710FEBB
:1044700030B920463B49FCF729FE10B1394C00E029
:10448000374CDFF8EC902046D9F80010FCF762FCBE
:1044900004901420344B00FB0AF61968334F029144
:1044A000BA19D9F8041058460392FCF753FC029944
:1044B000FCF750FCB959FCF745FBD9F80C90834642
:1044C00009F1004211460192FCF7E2FD019B30B96F
:1044D00058464946FCF7FAFD10B1CB4600E09B4632
:1044E000039A234B47F806B020460299FFF7DCFEFB
:1044F000594604460498FCF725FB2146FCF722FBAD
:1045000005F1004631460446FCF7C2FD30B92046AD
:104510002946FCF7DBFD10B12C4600E03446154877
:104520000AF1010A48F8004008F10408B8F1080F40
:104530007FF40DAF07B0BDE8F08F00BF1808002072
:10454000DC1F0020F41300200AD7233C0000F03FBA
:1045500004080020C41F00201408002024080020A4
:1045600000007AC400007A44C01F00209C0800208C
:1045700038080020B0200020F8B51B4B1B4A1978E2
:10458000B2F87A511A4839B992F87C610768B7FBDA
:10459000F6F4A54206D303E00468A54238BF2C46D2
:1045A000A4B200E02C46134E20463768FCF77EFB91
:1045B0003946FCF78BFD60B10F4A10491068FCF7D3
:1045C000C9FB01463846FCF7BDFA3060FCF7AEFD8A
:1045D00084B2064B93F87901844203D3AC4234BFD2
:1045E00020462846F8BD00BF55200020F4130020C7
:1045F000AC1F0020BC1F0020C01F00200000C842CC
:10460000F8B53D4C3D4E94F864713846FCF74AFBD2
:104610003B49FCF79FFB0546E07DFCF743FB39492E
:10462000FCF74CFC306094F82100FCF73BFB36496A
:10463000FCF744FC706094F82B00FCF733FB334923
:10464000FCF73CFCF560B0603561207EFCF72AFB8E
:104650002F49FCF733FC2F4E306094F82200FCF712
:1046600021FB2D49FCF72AFC706094F82C00FCF724
:1046700019FB2649FCF722FCF560B0603561607ECD
:10468000FCF710FB2549FCF719FC254E306094F827
:104690002300FCF707FB1C49FCF710FC706094F842
:1046A0002D00FCF7FFFA1949FCF708FC1D4AB06021
:1046B0001D4B1E481E49F56035611A60086094F86C
:1046C000650164235F4343431A4A1B49B4F86A01F6
:1046D0001780BB42B8BF1F460F80184C10B900238B
:1046E0002360F8BDFCF7DEFA01464FF07E50FCF780
:1046F000E5FB2060F8BD00BFF41300202408002073
:10470000000048420000C84200007A4400803B4557
:104710000000A040380800200050C347000020419E
:10472000F007002051E0EF30C4080020FDF7653F9E
:104730000C0800201808002004080020140800209D
:1047400038B5002210461D4B1D49D4581D4D5450FC
:104750001D49002353501D4954511D4C1D4D5350AC
:1047600014214143135153511B4C1C4D13515351B0
:104770001B4C1C4D13516B506C181B4D6360A36098
:10478000E36023616B506C18184D01306360A360C7
:10479000E360236104326C1802286B506360A360ED
:1047A000E3602361CFD1124B93F87901FCF77AFAD9
:1047B0001049114A08600020107038BDC820002040
:1047C00030210020DC070020D4070020500B0020FF
:1047D0001C080020DC1F0020C41F002088200020AF
:1047E000B02000204C0800209C0800207408002005
:1047F000F4130020BC1F002055200020044B1A7A1F
:1048000022B9D879003018BF0120704701207047C5
:10481000762000200E4B10B51868FCF747FA0D49BA
:104820000968FCF797FA20F000400CF099FC002191
:104830000446FCF723FC084B08B91C6001E0074A5A
:104840001A60074C19682068FCF738FB606010BDDF
:10485000C8200020C4080020EC0700207DC3E43AF3
:104860000C08002010B50C4C237B9BB10B48017841
:1048700004290FD9FFF7CEFF094A0A4B1068516887
:1048800018605960084B1868FCF72AFC074A10802A
:104890000120607310BD00BF76200020452100205C
:1048A000C8200020182100208C210020B01F0020EB
:1048B000F8B51D46154B06460F46186800211446EC
:1048C000FCF7DCFB08B1FFF7A5FF3968C9B1366812
:1048D000BEB12868A8B125689DB1081AFCF7E6F9B1
:1048E0000B49FCF737FA09490A4C0968FCF732FA18
:1048F0006060701BFCF7DAF90549FCF72BFA2060C1
:10490000F8BD044B00225A601A60F8BDEC07002085
:104910002C7D8E3FC41F00202DE9F84F9946136867
:1049200004460F4615460A9E002B00F0BB80006827
:10493000002800F0B780D9F80010002900F0B280FC
:104940003A68002A00F0AE80594908680021FCF757
:1049500095FB08B1FFF75EFF2A682368D01AFCF7C1
:10496000A5F93F688346D9F80000C01BFCF79EF903
:104970004F4907460968FCF7EDF959468246584603
:10498000FCF7E8F9514681465046FCF7E3F9014649
:104990004846FCF7D7F80CF031FE4649FCF7DAF947
:1049A000FCF7C4FB3060444E384636683146FCF7AD
:1049B000D1F907462068FCF779F93146FCF7CAF9C6
:1049C00004462868FCF772F93146FCF7C3F905463E
:1049D0000CF0C6FB824638460CF0F6FB5146FCF75D
:1049E000B9F9814620460CF0BBFB804628460CF006
:1049F000EBFB054620460CF0E7FB83463846FBF709
:104A000015FD0CF065FB06460F4640462946FCF7AF
:104A1000A1F9FBF70BFD04460D4658465146FCF73D
:104A200099F9FBF703FD32463B46FBF753FD02467F
:104A30000B4620462946FBF799FBFCF72DF8044668
:104A4000214648460CF0D8FD1C49FCF783F9FCF7D9
:104A500047FB1B4A90421DDB214648460CF0CCFD2B
:104A60001649FCF777F9FCF73BFB44F25063984298
:104A70000BDC214648460CF0BFFD1049FCF76AF9F3
:104A8000FCF72EFB002801DA05E018460B990860B8
:104A9000BDE8F88F104600F50C400B9AA03010606E
:104AA000BDE8F88F0B98002333600360BDE8F88FF2
:104AB000EC0700202C7D8E3FC4080020A00CB345DD
:104AC000B0B9FFFF2DE9F84F7A4B00211868FCF7C9
:104AD000D5FA08B1FFF79EFE774A78481468016856
:104AE0000C1B116000F0A680754B0020B4F5C87F48
:104AF000187080F09F80A4F10B060125122E1D7006
:104B000007D92046FCF7CEF801466E48FCF7D6F9E7
:104B100000E06D48A4F12907122FA4F1510198BFBC
:104B20006A48A4F1B502262998BF6948262A98BF89
:104B30006848E73C262C684C98BF4FF0814094F8B9
:104B40005C31022B5AD06549FCF704F9644F654E7D
:104B5000054671687868644C401AFCF7A7F8294646
:104B6000FCF7F8F8534A1168FCF7F4F833683F682B
:104B70006060F81AFCF79AF82946FCF7EBF8DFF8C2
:104B800060B155492060D1F85851DFF858A1DBF8E1
:104B900000002946CAF800004FF07E50FBF7D0FF16
:104BA000524C064621682846FCF7D4F8DFF83891C5
:104BB0000746D9F800103046FCF7CCF801463846D5
:104BC000FBF7C0FF4A4FDBF804204FF00008616894
:104BD0002060C7F800802846CAF80420FCF7BAF81D
:104BE000D9F8041005463046FCF7B4F801462846CB
:104BF000FBF7A8FFC7F8048060601BE03D4C3E4D0A
:104C00002088FCF753F83D49FCF7A4F806462888AD
:104C1000FCF748F8074630460CF0D6FA014638460D
:104C2000FCF798F8304C606030460CF099FA014679
:104C30003846A2E70AF0D4F8204B1968204B401AF6
:104C4000B0F5FA7F01D900221A701978002928D00E
:104C50002B4E00243768254D39466659244D304681
:104C6000FCF778F8274AA158FCF774F86159FBF76C
:104C700069FF2851FCF734FA1949234A63581A4945
:104C80001818A05061583046FBF75CFF4FF07C517C
:104C9000FCF760F81D4B18510434082CDBD1BDE83B
:104CA000F88FFFF74DFD1248002343600360BDE815
:104CB000F88F00BFEC07002008080020EC1300204C
:104CC000C808002000007A44000048420000A041CB
:104CD000000020410000A040F41300202C7D8E3FF6
:104CE000C8200020DC0700201C080020DC1F00205A
:104CF000E40700203A0C0020B820002088C3E43AE2
:104D0000080A00200C08002030210020D4070020D1
:104D100010B50B490446FCF7D9F920B120460949E2
:104D2000FBF70EFFF5E720460749FCF7B1F928B17C
:104D300020460449FBF706FF0446F4E7204610BD71
:104D400000A08C4600A00C4700A08CC638B50E49C8
:104D50000E4B0A6818680124801AFBF7A7FFFFF7BB
:104D6000D7FF00210546FCF7B1F920B128460849D4
:104D7000FCF7ACF903E028460649FCF789F900B9CD
:104D80000446E0B238BD00BFB81F0020B41F0020A9
:104D900000401C4600401CC62DE9F04F87B0894BEF
:104DA000039089481C680168601AFBF77FFF06467C
:104DB000FFF7AEFF00210546FCF788F920B1284631
:104DC0008249FCF765F903E028468149FCF77EF942
:104DD000002836D07F4A0021D2F880713846FCF78F
:104DE0004DF970BB7C493046FBF7B4FF0CF0ECF991
:104DF00006467A487A4D0068FBF754FF0146304674
:104E0000FBF7A8FF3946FBF7A5FFFCF769F940F669
:104E1000B8318842A8BF0846A842ACBF251865191A
:104E200048F6A044A54203DDA5F50C45A03DF7E7F3
:104E3000002D03DA05F50C45A035F9E7694A156040
:104E400001E0684B1C60674F00253B682C46C3F5AA
:104E50000C502830FBF72AFF5F49FBF77BFF064623
:104E60000CF07EF9059030460CF0AEF92F46049018
:104E70000398FBF717FF6A4604F110018958FBF706
:104E800069FF594B8046E158FBF75AFE57490646E1
:104E9000FCF7FEF830B930465549FCF717F910B168
:104EA000534E00E0514EDFF854A13046DAF80010BE
:104EB000FBF750FF4FF0140909FB07F902904D482A
:104EC00000EB090101913046DAF80410FBF742FFCC
:104ED000494A1168FBF73EFF464B53F80910FBF7B0
:104EE00031FEDAF80CA083460AF1004C6146CDF899
:104EF00000C0FCF7CDF8DDF800C030B95846514687
:104F0000FCF7E4F810B1D34600E0E34639485946CF
:104F100040F809B00298FBF715FE81463046364E40
:104F2000019A3168354BFFF7BFF901464846FBF758
:104F300009FE2849814691F87D61BEB1414640464F
:104F4000FBF708FF82463046FBF7ACFE2C49FBF727
:104F500001FF01465046FBF7FDFE00210646404694
:104F6000FCF796F818B106F1004600E0002631463D
:104F70004846FBF7E7FD234A0646B2F90090C9F11F
:104F80000000FBF793FE804641463046FCF780F870
:104F900040B94846FBF78AFE804641463046FCF75A
:104FA00095F800B146461348174B2958174AE65062
:104FB0000434A95001371435082C7FF459AF07B0D9
:104FC000BDE8F08FB41F0020B81F002000A08C4562
:104FD00000A08CC5F4130020D3023739AC1F002089
:104FE00048F4FFFFA81F0020D407002000007AC467
:104FF00000007A4474080020C01F0020F007002041
:1050000017B7D13818080020B02000209C080020D5
:1050100038B5154C4FF0000094F8B251012D22D153
:10502000124BA4F88A02187BE8B1114A1078D0B16B
:105030005878C0B10F48104A016840684B1113609E
:10504000C4F880320D4B411151601868C4F88412C5
:10505000FCF746F80A49C0F34F120A48A4F8882220
:1050600002800D60284638BDF41300207620002011
:10507000FC1F0020C8200020CC08002000200020B9
:10508000240B0020CA08002070B5354B93F8B221DC
:10509000012A62D13349087B00285FD04878002874
:1050A0005CD0B3F88A42B4F5127F56D82E4D2868EA
:1050B00046112E480368F21A12F1800F03DB7F2A93
:1050C00003DCD3B202E0802300E07F2306606E6839
:1050D000406872112649151A15F1800F0B7003DB19
:1050E0007F2D03DCEBB202E0802300E07F234B70D6
:1050F000204E1E4930684A60FBF7F2FF1E4D4011FA
:105100002B8882B216B219B2711A11F1800F2E4695
:1051100004DB7F2904DCC51AE8B202E0802000E04D
:105120007F20134D3280154AA8701068FBF7D8FF16
:10513000A10040F34E03EB708DB20023084AA8187B
:10514000C1180B48185C0133042B81F88C02F5D18F
:105150000134A2F88A42012070BD002070BD00BF5A
:10516000F413002076200020C8200020CC08002066
:10517000F013002000200020CA0800208C2100200D
:105180000C4B93F8B201012811D1B3F88A2272B105
:10519000D3F88012084A1160D3F884125160B3F832
:1051A0008822064B00211A80054A11807047002092
:1051B000704700BFF4130020CC080020CA0800206C
:1051C000D40800202DE9F041214C9C4694F8B231DE
:1051D000012B3AD11F4EB4F88A423688A64234D207
:1051E000002C32D0B700BFB20025194B1A4CFB1867
:1051F0005B1993F88C322B550135042DF5D10680BF
:10520000164894F90070036894F90150FF18436838
:1052100094F90280ED18124B0760456018887F01F1
:10522000404480B20F606D0101B215604A01CCF8B4
:105230000020188094F903300699064A5800013678
:10524000088016800120BDE8F0810020BDE8F081D3
:10525000F4130020D4080020F0130020CC08002014
:10526000CA0800201D481E49026800608A4200F0FA
:105270001F80002100F004B81A4B5B5843500431E2
:1052800019481A4B42189A42FFF4F6AF184A00F038
:1052900003B8002342F8043B164B9A42FFF4F9AFDF
:1052A0000AF028FE10F024FA03F0A6FDFFF7FEBF77
:1052B000114E124830601248016821F0706101609F
:1052C000410201600F4C182020600F490F48086010
:1052D0000F48D0F800D0406800470000F04F002091
:1052E000EFBEADDEB09A010800000020840400206B
:1052F00088040020242A0020181002400900000021
:1053000004000140140C0140000C014044344344AB
:1053100000F0FF1FFFF7FEBFF8B5194C06462378D3
:10532000274683B909F05CFD164D2A683232904257
:1053300009D3154801224FF480512270416109F0D0
:105340004FFD2860F8BD3878C0B109F049FD0D4C1B
:1053500021687318984211D309480B4B00224FF46F
:1053600080510270196109F03BFD20600748027806
:105370000AB1511E0170064B01201870F8BD00BF24
:10538000D7080020DC08002000080140480B00205E
:10539000D808002037B58DF8051021498DF8073061
:1053A0000B788DF8040002A88DF80620C21812F8B8
:1053B000044C0D46443CE0B20A282CD81949022B73
:1053C00031F8104003D814B12046FFF7A5FF2B7821
:1053D000022B0BD9144D2D6809F002FD021B9542DA
:1053E00004D20F49114B0020087018701048027841
:1053F0000146012A00D094B9094B1878022801D837
:10540000421C1A7000230B700A4A0B494FF480505B
:105410000B70106103E03224022BD5D9D7E73EBDD3
:10542000D608002038660108DC080020480B002060
:10543000D808002000080140D708002070B53E4B76
:105440000446DA7A3D4802B1012202704FF400703E
:1054500002F056F9D0B13A4D3A4995F8F4000B886C
:10546000052101FB00F293420DDD374E374A767875
:105470003EB195F8F5500126401941438B42167014
:1054800001DD022111700BB9304A1370102002F0B7
:1054900017F960B128482E4B817909B9C27922B138
:1054A0002948017B09B9012200E000221A70274B2C
:1054B0001878022802D14C204E211EE0012807D185
:1054C0004D2153204C220B46BDE87040FFF762BFD0
:1054D0001F490A78012A03D1532001464E2206E0D3
:1054E000164B1878012804D15320014602464D235B
:1054F000EAE7042C03D153204D210A460AE0022C8E
:1055000003D1532001464D2204E0012C04D1532045
:105510004D214E224423D7E70E490B7823B1322088
:10552000BDE87040FFF7F8BE0B4A0C494FF48050BD
:105530001370086170BD00BF22210020DA0800202E
:10554000F4130020F60C002076200020D90800205B
:10555000DB080020480B0020D7080020000801408D
:105560000B88584080EA0010C2B21B0A83EA12106E
:1055700040EA022383EAC2020A80704770B50646F9
:10558000B6FBF2F40846154614B12046FFF7F6FFC5
:1055900005FB1464024B195D00F8011B70BD00BFD0
:1055A00020680108000000002DE9F047027803465A
:1055B0000130202AFAD0092AF8D02D2A03D1034637
:1055C0000026614F04E02B2A604F08BF03460026E7
:1055D000984600240025434618F8010BA0F1300935
:1055E0005FFA89F1092913D80022594B2046294630
:1055F000FAF770FF044648460D46FAF705FF0246E3
:105600000B4620462946FAF7B3FD04460D46E2E76D
:105610002E2822D1DFF83891C2464FF000085346B9
:105620001AF8010B3038C2B2092A16D8FAF7ECFE84
:1056300042464B46FBF778F802460B462046294681
:10564000FAF796FD002204460D4640464946404B77
:10565000FAF740FF80468946E1E71878652801D0CF
:10566000452858D159782D2903D102334FF001092B
:1056700006E02B2901D0013300E002334FF000098E
:10568000013B4FF0000813F8012F303AD0B209283F
:1056900003D80A2101FB0828F5E72C4BB8F59A7FBF
:1056A00028BF4FF49A780022B8F1310F0BD9104679
:1056B000194621A3D3E90023FAF70CFFA8F1320819
:1056C00002460B46F0E7C246B8F1070F0BD9104669
:1056D00019461BA3D3E90023FAF7FCFEA8F108083A
:1056E00002460B46F0E70AF00708B8F1000F0AD0AF
:1056F000104619460022164BFAF7ECFE08F1FF3867
:1057000002460B46F1E7B9F1000F06D020462946C4
:10571000FBF70AF805E00D4B002220462946FAF770
:10572000D9FE02460B4630463946FAF7D3FEFBF760
:10573000B3F9BDE8F08700BF9A647EC50E1B514ADD
:105740000000000084D797410000F0BF0000F03F48
:1057500000002440AFF30080F8B502790669C46800
:10576000052A45D8DFE802F003030E0E1A258368E8
:105770001A785118A14203DBB142B4BF0C4634463B
:105780001C70F8BD8368B3F900205018A04203DBF9
:10579000B042B4BF044634461C80F8BD8368186824
:1057A0000918A14203DBB142B4BF0C4634461C6069
:1057B000F8BD87680846FBF779FA0E49FBF77EFBD0
:1057C0003968FBF7BFF905462046FBF76FFA044638
:1057D00021462846FBF75CFC40B93046FBF766FAE9
:1057E000044621462846FBF771FC00B125463D6082
:1057F000F8BD00BF00007A44024B01221870024835
:10580000027070474609002058090020014809F03D
:105810000DBD00BF45680108014809F007BD00BF84
:105820007768010810B5074809F000FD0024064B11
:1058300006481A19E15852680C3409F007FFD82CB1
:10584000F5D110BD95680108D4660108AD6801085E
:105850002DE9F84306460F46904658250024305956
:10586000B8F1000F07D0FBF73BFC294602460B4876
:1058700009F0ECFE0BE0FBF733FC81463859FBF7EF
:105880002FFC294603464A46054809F0DFFE04344A
:1058900001350C2CE3D1BDE8F88300BFB6680108E0
:1058A000C66801081FB5424C424809F0CFFE206887
:1058B0004149FBF74FFA404901906068FBF74AFA0B
:1058C0003D490290A068FBF745FA01A90390002228
:1058D0003A48FFF7BDFF012001F0F2FEF8B1384C65
:1058E000384809F0B3FE606D3349FBF733FA3249AB
:1058F0000190A06DFBF72EFA2F490290E06DFBF7A7
:1059000029FA01A90390002204F13800FFF7A0FF53
:10591000606CFBF7E5FB01462B4809F097FE04207D
:1059200001F0CEFE002832D0284809F08FFE244B2B
:1059300093F8600008B1264800E0264809F086FE8A
:10594000254800210122FFF783FF244809F07EFE4D
:105950005824234901EB8402A2F5B0731868214949
:10596000FBF7F8F9FBF7BCFB2146024601341E4861
:1059700009F06CFE5B2CECD11C4809F067FE1C485A
:10598000017809B11B4800E01B4809F05FFE0220C6
:1059900001F096FE50B1194809F058FE184A1068F7
:1059A000FBF79EFB0146174809F050FE1FBD00BFE4
:1059B000EC210020E26801080000C842902100208C
:1059C000F4130020FC6801080F690108226901082E
:1059D0002F6901082B6901083C1400203A6901086D
:1059E000AC21002000007A44466901085969010889
:1059F000C3130020636901085F6901086869010831
:105A0000582000207369010873B5644B644D196810
:105A1000644C4FF47A72B1FBF2F12B782278624831
:105A200009F014FE01F066FE05466048604B06680A
:105A30006048B6FBF3F109F009FE00265E4951F813
:105A4000261051B1012202FA06F22A4202D05B4826
:105A500009F0FCFD741CE6B2F0E7012001F030FE15
:105A600038B15748574B0178574853F8211009F07F
:105A7000EDFD564A564E148809F08AF92146024631
:105A8000544809F0E3FD5448718809F0DFFD71883E
:105A90005248A1F6241109F0D9FD514840F62411CD
:105AA000B6F88A2209F0D2FD4E4809F0CFFD022057
:105AB00001F006FEE8B1102001F002FEF8B1444CFE
:105AC000494809F0C3FDB4F87802FBF7EBF8474901
:105AD000FBF740F9FBF72AFBB4F8761285B244488D
